:020000040800F2
:10000000400900204D0100088F190008E51800087C
:100010008D19000833020008E91A000800000000EA
:10002000000000000000000000000000B3190008FC
:100030003502000800000000B1190008B5190008D9
:1000400067010008670100086701000867010008F0
:1000500067010008670100086701000867010008E0
:1000600067010008670100086701000867010008D0
:1000700067010008670100086701000867010008C0
:1000800067010008670100086701000867010008B0
:1000900067010008670100086701000867010008A0
:1000A0006701000867010008670100086701000890
:1000B0006701000867010008670100086701000880
:1000C0006701000867010008670100086701000870
:1000D0006701000867010008670100086701000860
:1000E0006701000867010008670100086701000850
:1000F0006701000867010008670100086701000840
:10010000670100086701000867010008670100082F
:1001100067010008670100080D1A00086701000860
:10012000670100086701000867010008670100080F
:10013000DFF814D000F06AF800F01AF80048004721
:10014000811C000800F040F8400900200648804764
:1001500006480047FEE7FEE7FEE7FEE7FEE7FEE7AC
:10016000FEE7FEE7FEE7FEE7C519000831010008DB
:1001700070B5054C054D03E0206820448047241DE0
:10018000AC42F9D170BD0000341D0008381D0008D4
:100190002DE9F041074615460E46102001F07CFD82
:1001A00004000AD06760C4E9026500F009F801683C
:1001B000216004600020BDE8F0810120FBE7000021
:1001C00000487047140000202DE9F0410646FFF773
:1001D000F7FF8046454613E016B1E068B0420ED105
:1001E00020682860D4E90101D8F8007088472046CB
:1001F00001F01EFDD8F80000B842EBD100E0254622
:100200002C68002CE8D1BDE8F0810000064C074DB9
:1002100006E0E06840F0010394E8070098471034D6
:10022000AC42F6D3FFF788FF141D0008341D000808
:100230007047FEE77047FEE770B50B6815460E463F
:100240000446A3B1042B12D00C2B10D0142B0ED0CB
:100250001C2B0CD0242B0AD02C2B08D0342B06D0EE
:100260003C2B04D040F2EA2119A001F0DFFC7068B9
:1002700030B1022804D040F2EB2115A001F0D6FCE9
:1002800035B1102D04D04FF43B7111A001F0CEFC1C
:100290006079012819D00121617102202071D6E90D
:1002A0000002236810431A6840F6FE76AE40B2435F
:1002B000A84002431A6020680268C023AB409A43FA
:1002C000026021710020607170BD022070BD0000CD
:1002D0002E2E2F447269766572732F53544D33322C
:1002E000463178785F48414C5F4472697665722F79
:1002F0005372632F73746D3332663178785F68613F
:100300006C5F6461632E630070B504000CD00D490E
:100310002068884204D04FF488710BA001F086FC5D
:100320002079002510B105E0012070BD65712046DF
:1003300000F026F8022020712561012020710020A4
:1003400070BD0000007400402E2E2F447269766547
:1003500072732F53544D3332463178785F48414C95
:100360005F4472697665722F5372632F73746D33B5
:1003700032663178785F68616C5F6461632E630018
:1003800000B500680B4985B0884210D10A48C169A0
:1003900041F00051C161C069694600F0005004900D
:1003A0001020009003200190044800F05FF805B091
:1003B00000BD000000740040001002400008014031
:1003C000F8B507464FF000001E4614460D00009099
:1003D00006D0102D04D040F2213110A001F026FCEF
:1003E00044B1042C06D0082C04D040F222310BA0DA
:1003F00001F01CFC4FF6F070864204D940F2233124
:1004000006A001F013FC38680090204425B1143098
:10041000009006600020F8BD0830F9E72E2E2F442A
:100420007269766572732F53544D33324631787842
:100430005F48414C5F4472697665722F5372632F37
:1004400073746D3332663178785F68616C5F6461B4
:10045000632E630031B500F0AFF9044600F0ACF94B
:100460000099001B8842F9D338BD00002DE9F84FF0
:10047000DFF8BCB20D4604464FF00009584515D0D0
:10048000AC48844212D0AC4884420FD0AB4884427E
:100490000CD0AB48844209D0AA48844206D0AA486E
:1004A000844203D0CF21A9A001F0C0FB288800041A
:1004B000000C03D1D021A5A001F0B8FB6868F8B109
:1004C00001281DD011281BD0022819D0122817D0BE
:1004D000AD49884214D0AD49884211D0AC49884218
:1004E0000ED0AC4988420BD0AB49884208D0AB490A
:1004F000884205D0032803D0D12194A001F096FBB7
:1005000000274FF0010A00BF2E680AFA07F806EA32
:100510000806464575D15C4515D08648844212D000
:10052000854884420FD0854884420CD08448844258
:1005300009D08448844206D08348844203D0DF2116
:1005400082A001F073FB904869680A1A814259D071
:100550000EDC032976D006DC002953D0012919D0FE
:1005600002296AD131E0112921D0122965D13AE05E
:10057000B2F5881F46D006DCB2F5803F42D0B2F516
:10058000801F5AD13EE0B2F5001F3BD0B2F5041FE8
:1005900053D137E0E868022807D0012805D00328A6
:1005A00003D0E72169A001F041FBE8683FE0E8687B
:1005B000022807D0012805D0032803D0EE2163A02C
:1005C00001F034FBE868001D31E0E868022807D03C
:1005D000012805D0032803D0F5215CA001F026FBFB
:1005E000E868083023E0E868022807D0012805D031
:1005F000032803D0FC2155A001F018FBE8680C305B
:1006000015E08FE0A86888B1012812D0022808D030
:1006100040F209114DA001F009FBA86830B1012892
:1006200007D04FF00809C4F8148006E00420814682
:1006300003E04FF00809C4F81080FF2E05D82246C9
:1006400005E0FFE74FF00000F1E704F104024FEA94
:10065000870001D9A0F1200013684FF00F0101FAC3
:1006600000FC23EA0C0309FA00FC43EA0C031360C4
:100670006868C00056D54A48826942F0010282612A
:10068000806927F0030200F0010000904548024411
:100690009068BB071B0F994088435C4501D100213E
:1006A00019E024498C4201D1012114E022498C42F5
:1006B00001D102210FE021498C4201D103210AE03E
:1006C0001F498C4201D1042105E01E498C4201D111
:1006D000052100E006219940014391606868C0034C
:1006E0003148016801D5314300E0B14301606868D9
:1006F00080032E48016801D5314300E0B143016019
:100700006868C0022A48016801D5314300E0B1435E
:100710000160686880022748016801D5314300E024
:10072000B14301607F1C102FFFF4EEAEBDE8F88FDF
:1007300000080140000C014000100140001401407D
:1007400000180140001C0140002001402E2E2F44C3
:100750007269766572732F53544D3332463178780F
:100760005F48414C5F4472697665722F5372632F04
:1007700073746D3332663178785F68616C5F67706F
:10078000696F2E63000000000000111000002110AE
:100790000000311000001210000022100000321082
:1007A0000010024000000140000401400404014028
:1007B000080401400C040140014800687047000033
:1007C0000000002002480168491C016070470000D9
:1007D00000000020074810B5016841F010010160D9
:1007E000032000F0DBF8002000F006F800F016F817
:1007F000002010BD0020024010B5044600F054FA5D
:100800004FF47A71B0FBF1F000F04BFE002221466C
:10081000501E00F073F8002010BD00001D4808B500
:10082000816941F001018161806900F0010000905F
:10083000032000F0B3F8002211466FF00B0000F027
:100840005DF8002211466FF00A0000F057F8002210
:1008500011466FF0090000F051F800221146501FB8
:1008600000F04CF800221146101F00F047F800225B
:100870001146901E00F042F800221146501E00F072
:100880003DF80548416821F0E06141F000714160A8
:1008900008BD0000001002400000014010B5040037
:1008A00003D5E62106A001F0C1F904F01F010120E3
:1008B00088406109890001F1E021C1F8000110BD03
:1008C0002E2E2F447269766572732F53544D333236
:1008D000463178785F48414C5F4472697665722F83
:1008E0005372632F73746D3332663178785F686149
:1008F0006C5F636F727465782E63000070B5154687
:100900000C460646102A03D3D22114A001F08EF91A
:10091000102C03D3D32111A001F088F91E480068E0
:10092000C0F30223C3F107022046042A00D904229F
:10093000191D072901D2002300E0DB1E012404FA5F
:1009400002F1491E014099409C40641E2C40214305
:100950003046BDE8704001F01BB800002E2E2F4439
:100960007269766572732F53544D333246317878FD
:100970005F48414C5F4472697665722F5372632FF2
:1009800073746D3332663178785F68616C5F636F62
:10099000727465782E6300000CED00E010B504461B
:1009A00007280BD0062C09D0052C07D0042C05D025
:1009B000032C03D0BA2108A001F038F9154904F03E
:1009C000070208684FF6FF03184040EA0220124A67
:1009D0001043086010BD00002E2E2F44726976650A
:1009E00072732F53544D3332463178785F48414CFF
:1009F0005F4472697665722F5372632F73746D331F
:100A000032663178785F68616C5F636F72746578A5
:100A10002E6300000CED00E00000FA052DE9F04720
:100A20000E46050004D14FF42F718DA001F0FEF8A1
:100A30002868C1070AD1810708D4410706D40007F6
:100A400004D440F2BD2186A001F0F0F846B1012E99
:100A500006D0022E04D040F2BE2181A001F0E6F8BB
:100A6000DFF83482D8F8000000F00700B0420CD262
:100A7000D8F8001021F007013143C8F80010D8F869
:100A8000000000F00700B0426FD12878834C800747
:100A90001CD5A868A0B1802812D0902810D0A0281A
:100AA0000ED0B0280CD0C0280AD0D02808D0E0281A
:100AB00006D0F02804D040F2D72169A001F0B6F8A2
:100AC0006068A96820F0F000084360602878C007DB
:100AD00064D06868012768B1012817D0022834D093
:100AE00040F2DE215EA001F0A1F8686801280DD077
:100AF00002282AD05FF0020191FAA1F0B0FA80F04A
:100B000040F02000400904D0206803E04FF4003199
:100B1000F2E7606A91FAA1F1B1FA81F101F01F01E7
:100B20008F4038424BD06068696820F0030008436A
:100B30006060FFF741FE6968074641F2883001298D
:100B40000CD00229814616D024E04FF00071D3E783
:100B5000FFF732FEC11B494501D918E081466068A4
:100B6000C0F381000128F3D118E028E0FFF724FE4C
:100B7000C11B49450BD86068C0F381000228F5D13C
:100B80000CE000BFFFF718FEC11B494502D9032046
:100B9000BDE8F087606810F00C0FF3D1D8F80010B2
:100BA000404601F00701B1420BD9016821F007016D
:100BB00031430160006800F00700B04201D001201D
:100BC000E6E728784FF4806640074FF4A0674FF4BB
:100BD000C0684FF4E06914D5E86860B1B0420AD04B
:100BE000B84208D0404506D0484504D040F23231E2
:100BF0001BA001F01BF86068E96820F4E06008437E
:100C000060602878000715D5286960B1B0420AD025
:100C1000B84208D0404506D0484504D040F23931AA
:100C20000FA001F003F86068296920F4605040EAE1
:100C3000C100606000F03EF86168F02292FAA2F212
:100C400001F0F001B2FA82F2D140154A515CC8407D
:100C5000144908600020FFF7CFFD002098E700004E
:100C60002E2E2F447269766572732F53544D333292
:100C7000463178785F48414C5F4472697665722FDF
:100C80005372632F73746D3332663178785F6861A5
:100C90006C5F7263632E630000200240001002400C
:100CA000041D00080800002001480068704700008B
:100CB0000800002010B51AA385B00FCB8DE80F00F7
:100CC0001BA01C4B006804905A681B4802F00C01E2
:100CD000042902D0082902D0400005B010BD4FF40D
:100CE000701494FAA4F402F47011B4FA84F4E1409C
:100CF000D2031DF801100FD55A684FF4003393FA50
:100D0000A3F302F40032B3FA83F3DA4004AB9A5C43
:100D1000B0FBF2F04843E0E707484843DDE7000056
:100D200002030405060708090A0B0C0D0E0F10102C
:100D3000010200000010024000093D002DE9F84FBB
:100D4000040004D14FF48771EFA000F06FFF022779
:100D5000DFF8EC83FB4D20684FF4003A4FF00009B8
:100D60004FF4803B012660B1C1070DD1810777D4D4
:100D7000010776D4400775D440F20F11E2A000F0CD
:100D800055FF2078C00730D0606848B1584507D07B
:100D9000B0F5A02F04D040F21511DBA000F046FF03
:100DA0006868C0F38100012807D06868C0F381003B
:100DB00002281BD16868C00318D59AFAAAF1B1FAC3
:100DC00081F141F02001490901D0296800E0696AF8
:100DD0009AFAAAF0B0FA80F000F01F0006FA00F0CC
:100DE000014260D0606800287ED05CE060685845B1
:100DF00003D1286840F480300AE010B1B0F5A02F8C
:100E00000DD0286820F480302860286820F48020E5
:100E10002860606838B3FFF7CFFC00900AE02868CC
:100E200040F480202860E4E7FFF7C6FC0099401AF0
:100E3000642873D89AFAAAF0B0FA80F040F0200043
:100E4000400901D0286800E0686A9AFAAAF1B1FA6C
:100E500081F101F01F0106FA01F10842E4D022E01D
:100E600024E0BBE034E1FFE7FFF7A6FC009005E0DB
:100E7000FFF7A2FC0099401A6428DAD89AFAAAF07F
:100E8000B0FA80F040F02000400901D0286800E06E
:100E9000686A9AFAAAF1B1FA81F101F01F0106FA23
:100EA00001F10842E4D1207880076DD5206930B186
:100EB000012804D040F2491193A000F0B7FE606908
:100EC0001F2804D94FF4A5718FA000F0AFFE686809
:100ED00010F00C0F07D06868C0F3810002281ED103
:100EE0006868C0031BD400E08FE097FAA7F0B0FA5F
:100EF00080F040F02000400901D0286800E0686AD6
:100F000097FAA7F1B1FA81F101F01F0106FA01F198
:100F100008422DD02069012877D129E06FE22069AD
:100F200098B396FAA6F0B0FA80F048F82060FFF780
:100F300043FC009007E000BFFFF73EFC014600982D
:100F4000081A022899D897FAA7F0B0FA80F040F072
:100F50002000400901D0286800E0686A97FAA7F1EC
:100F6000B1FA81F101F01F0106FA01F10842E3D064
:100F70002868F82292FAA2F26169B2FA82F220F0AD
:100F8000F80091400843286025E0FFE796FAA6F1B3
:100F9000B1FA81F148F82190FFF70EFC009005E0CE
:100FA000FFF70AFC0099401A0228CBD897FAA7F05D
:100FB000B0FA80F040F02000400901D0286800E03D
:100FC000686A97FAA7F1B1FA81F101F01F0106FAF8
:100FD00001F10842E4D12078000776D5A06988B3F2
:100FE000012806D04FF4C57147A000F01FFEA0698C
:100FF00040B396FAA6F0B0FA80F008EB8000C0F893
:101000008064FFF7D9FB009006E0B3E1FFF7D4FB63
:101010000099401A022895D897FAA7F0B0FA80F004
:1010200040F06000B6EB501F01D128680CE097FA41
:10103000A7F0B0FA80F040F06000B7EB501F02D18B
:10104000286A01E00EE0686A97FAA7F1B1FA81F127
:1010500001F01F0106FA01F21042D7D00120FFF77C
:10106000F9F932E096FAA6F1B1FA81F108EB8101C3
:10107000C1F88094FFF7A0FB009005E0FFF79CFB10
:101080000099401A022890D897FAA7F0B0FA80F099
:1010900040F06000B6EB501F01D128680BE097FAD2
:1010A000A7F0B0FA80F040F06000B7EB501F01D11C
:1010B000286A00E0686A97FAA7F1B1FA81F101F0B5
:1010C0001F0106FA01F21042D8D12078400778D5E6
:1010D000E06840B1012806D0052804D040F2B711DD
:1010E00009A000F0A3FDE86940F08050E861E869DC
:1010F00000F0805000901448016841F48071016054
:10110000FFF75AFB009027E02E2E2F447269766578
:1011100072732F53544D3332463178785F48414CC7
:101120005F4472697665722F5372632F73746D33E7
:1011300032663178785F68616C5F7263632E63003A
:10114000000042420010024000700040FFF734FBF4
:101150000099401A642896D8B7480068C005F5D5AC
:10116000E06801280AD008B1052811D0286A20F0CB
:1011700001002862286A20F0040002E0286A40F09A
:1011800001002862E068A0B3FFF716FB00900DE0B5
:10119000286A40F004002862F0E700BFFFF70CFB6C
:1011A0000099411A41F288308142D4D897FAA7F0C9
:1011B000B0FA80F040F04000B6EB501F02D1286832
:1011C0000CE044E097FAA7F0B0FA80F040F040005D
:1011D000B7EB501F01D1286A00E0686A97FAA7F1BF
:1011E000B1FA81F101F01F0206FA02F10842D5D0EE
:1011F0002DE0FFE7FFF7E0FA009007E0FFF7DCFAE9
:101200000099411A41F288308142A4D897FAA7F098
:10121000B0FA80F040F04000B6EB501F01D12868D2
:101220000BE097FAA7F0B0FA80F040F04000B7EB7F
:10123000501F01D1286A00E0686A97FAA7F1B1FA55
:1012400081F101F01F0206FA02F10842D6D1E069ED
:1012500000286ED001280AD0022808D040F2472189
:10126000AFF25C1000F0E2FCE069002861D0686831
:10127000C0F3810002287DD0E0694FF0807702281A
:101280000BD097FAA7F1B1FA81F148F82190FFF756
:1012900093FA07464FF00074B4E0206A38B158451D
:1012A00005D04FF41471AFF2A01000F0BFFC606ADB
:1012B00078B3B0F5802F2CD0B0F5002F29D0B0F541
:1012C000402F26D0B0F5801F23D0B0F5A01F20D02E
:1012D000B0F5C01F1DD0B0F5E01F1AD0B0F5001F4B
:1012E00017D0B0F5101F14D0B0F5201F11D0B0F5F5
:1012F000301F0ED0B0F5401F0BD0B0F5501F08D0F6
:10130000B0F5601F05D040F25121AFF2042000F08B
:101310008DFC4FF0807191FAA1F14846B1FA81F14C
:10132000C14648F82100FFF747FA80464FF00077A2
:1013300006E07CE0FFF740FAA0EB080002285ED848
:1013400097FAA7F0B0FA80F040F02000400901D0F1
:10135000286800E0686A97FAA7F1B1FA81F101F014
:101360001F0106FA01F10842E4D1206A584511D163
:10137000A06800E05DE038B1504505D040F267213B
:10138000AFF27C2000F052FC6868A16820F40030C5
:1013900008436860D4E908010843696821F47411BE
:1013A000084368604FF0807090FAA0F0B0FA80F0C7
:1013B00049F82060FFF700FA044604E0FFF7FCF963
:1013C000001B02281BD897FAA7F0B0FA80F040F073
:1013D0002000400901D0286800E0686A97FAA7F168
:1013E000B1FA81F101F01F0106FA01F10842E5D0DE
:1013F0001DE000BFFFF7E0F9C01B022802D903205F
:10140000BDE8F88F94FAA4F0B0FA80F040F0200024
:10141000400901D0286800E0686A94FAA4F1B1FAA2
:1014200081F101F01F0106FA01F10842E2D100202A
:10143000E6E70120E4E700000070004010B54FF03F
:10144000E024042809D020B14FF4DF7105A000F09A
:10145000EDFB206920F0040002E0206940F0040068
:10146000206110BD2E2E2F447269766572732F5342
:10147000544D3332463178785F48414C5F4472694D
:101480007665722F5372632F73746D3332663178C1
:10149000785F68616C5F636F727465782E630000BB
:1014A000704710B5401EB0F1807F01D3012010BD00
:1014B0004FF0E02460610F21601700F069FA00200E
:1014C000A06107202061002010BD10B5FFF7E8FFE4
:1014D00010BD70477047000070B50D4604460068A7
:1014E000314988421CD03149884219D0B0F1804F2F
:1014F00016D02F49884213D02E49884210D02E4949
:1015000088420DD02D4988420AD02D49884207D003
:101510002C49884204D040F28C612BA000F086FB5D
:10152000286890B1102810D020280ED030280CD078
:1015300040280AD0502808D0602806D0702804D04F
:1015400040F28D6120A000F071FB6868802805D012
:1015500020B140F28E611CA000F068FB94F83800C6
:1015600001281FD0012084F83800022184F83910A6
:1015700021684A6822F070024A6021684A682B6834
:101580001A434A6021688A6822F080028A602168D2
:101590008A686B681A438A6084F83900002084F8EE
:1015A000380070BD022070BD002C014000340140A5
:1015B0000004004000080040000C00400010004003
:1015C00000140040001800402E2E2F4472697665EA
:1015D00072732F53544D3332463178785F48414C03
:1015E0005F4472697665722F5372632F73746D3323
:1015F00032663178785F68616C5F74696D5F6578B9
:101600002E63000010B504004CD03048226882429E
:101610002AD02F48824227D0B2F1804F24D02D48C3
:10162000824221D02C4882421ED02C4882421BD0BC
:101630002B48824218D02B48824215D02A48824239
:1016400012D02A4882420FD0294882420CD0294821
:10165000824209D02848824206D02848824203D0DC
:10166000D72127A000F0E2FAA06858B1102809D0CD
:10167000202807D0402805D0602803D0D82120A0FA
:1016800000F0D4FA206948B1B0F5807F06D0B0F5FB
:10169000007F03D0D9211AA000F0C8FA94F83900CD
:1016A00010B107E0012010BD002084F8380020466A
:1016B00000F042F8022084F83900211D206800F073
:1016C000B3F9012084F83900002010BD002C01403E
:1016D000003401400004004000080040000C0040BD
:1016E0000010004000140040004C01400050014038
:1016F0000054014000180040001C00400020004041
:101700002E2E2F447269766572732F53544D3332E7
:10171000463178785F48414C5F4472697665722F34
:101720005372632F73746D3332663178785F6861FA
:101730006C5F74696D2E630008B500680B498842C0
:1017400012D10B48C16941F01001C161C06900228A
:1017500000F01000009011463620FFF7CFF8BDE8EA
:1017600008403620FFF79AB808BD0000001000407E
:1017700000100240704770B50446006801694FF0E0
:101780000005C943890715D4C168C943890711D425
:10179000E91E0161012020762068806980072046CB
:1017A00002D0FFF7E7FF04E000F098F8204600F0D1
:1017B00096F8257620680169C943490717D4C1689E
:1017C000C943490713D46FF0040101610220207658
:1017D0002068806910F4407F204602D0FFF7CAFFDE
:1017E00004E000F07BF8204600F079F825762068C8
:1017F0000169C943090716D4C168C943090712D44E
:101800006FF008010161042020762068C06980071C
:10181000204602D0FFF7AEFF04E000F05FF820465C
:1018200000F05DF8257620680169C943C90617D420
:10183000C168C943C90613D46FF0100101610820C3
:1018400020762068C06910F4407F204602D0FFF760
:1018500091FF04E000F042F8204600F040F82576C1
:1018600020680169C943C90708D1C168C943C907CC
:1018700004D1891E0161204600F032F82068016918
:10188000C943090609D4C168C943090605D46FF0E4
:10189000800101612046FFF71CFE20680169C943F1
:1018A000490609D4C168C943490605D46FF040010F
:1018B0000161204600F015F820680169C9438906D6
:1018C0000BD4C168C943890607D46FF020010161B8
:1018D0002046BDE87040FFF7FDBD70BD7047704702
:1018E00070477047FEE700001CB50C490A480860C5
:1018F0000846FEF709FD08B1FEF79DFC00200090A8
:101900000246019069460548FEF796FC002801D082
:10191000FEF791FC1CBD0000007400402C03002069
:10192000094808B5816941F020018161816901F0B0
:1019300020010091816941F004018161806900F01A
:101940000400009008BD0000001002401CB50E48C5
:101950000C490024016049F63F41C0E9011401210E
:10196000C160FFF74FFE08B1FEF765FC00946946C1
:1019700005480194FFF7B0FD002801D0FEF75BFC9D
:101980001CBD000000100040F0020020FEE7704780
:101990000907090E002806DA00F00F0000F1E02028
:1019A00080F8141D704700F1E02080F800147047A3
:1019B0007047704710B5FEF705FFBDE81040FFF710
:1019C00084BD00000D48016841F0010101604168DB
:1019D0000B4A1140416001680A4A114001600168E8
:1019E00021F480210160416821F4FE0141604FF43F
:1019F0001F0181600449C003086070470010024065
:101A00000000FFF8FFFFF6FE08ED00E010B5044807
:101A100000F0A4F8BDE810400248FFF7ACBE00009B
:101A20000C000020F0020020F0B50268234B244D8A
:101A3000244E254F254C4FF0804C984209D0A042AF
:101A400007D0604505D0A84203D0B04201D0B842CB
:101A500004D122F0700E4A6842EA0E0298421BD06E
:101A6000A04219D0604517D0A84215D0B04213D07B
:101A7000B84211D0164DA8420ED0164DA8420BD038
:101A8000154DA84208D0154DA84205D0144DA842C6
:101A900002D0144DA84203D122F44075CA682A43EB
:101AA00002608A68C2620A688262984201D0A042DB
:101AB00001D10969016301214161F0BD002C0140A0
:101AC0000004004000080040000C004000340140C9
:101AD000004C0140005001400054014000180040FB
:101AE000001C004000200040FEE730B58FB0012010
:101AF00000900225000400240795CDE90104CDE9FA
:101B000008046846FFF71AF900B1FEE70F20CDE997
:101B10000A058020CDE90C0400210AA80E94FEF7E6
:101B20007DFF00B1FEE7FFF7BFF84FF47A71B0FB1D
:101B3000F1F0FFF7B6FC0420FFF780FC002211460D
:101B4000501EFEF7DBFE0FB030BD00000346002242
:101B500011460148FEF734BC2C03002070B5054641
:101B60004079002823D0184C2A781649002620886E
:101B7000012A06D00A2A08D0142A0AD0322A11D102
:101B80000BE06A88632A13D00AE06A88092A0FD01A
:101B900006E06A88042A0BD002E06A88012A07D08E
:101BA000521C6A802088B0F5B47F00D1268070BDB9
:101BB00031F81000FFF7CAFF2088401C20806E809B
:101BC000F0E7000020000020040000200121017146
:101BD000704770B50025458005710446057028469C
:101BE000FFF7B4FF6571204670BD02E008C8121F00
:101BF00008C1002AFAD170477047002001E001C1F6
:101C0000121F002AFBD1704710B514210448FFF7BA
:101C1000DDFFBDE81040034A0349FEF7B9BA0000F2
:101C20000C00002000000008D31B000870470000D3
:101C300010B5002821D0114B0022001F196803E0C5
:101C4000814203D80A4649680029F9D152B1136884
:101C5000841A9C4204D1006818441060104602E0C7
:101C6000506000E0186039B102680B1A934203D14A
:101C70000B681A4402604968416010BD18000020DA
:101C8000FEF7A8FDFFF731FFFFF74AFEFFF72CFE36
:101C9000FFF75CFEFEE70000F0B50B30154D20F0BD
:101CA00007010024144A0FE003688B420BD38B42D8
:101CB00005D95E1A43184768C3E9006700E0436826
:101CC000136002C004E0021D10680028ECD1204619
:101CD000002802D1286808B10020F0BD064A074854
:101CE0001060074A121A22F00702C0E900240120FE
:101CF0002860D7E71C0000201800002044030020C3
:101D00004005002000000000000000000102030464
:101D100006070809381D0008000000202000000008
:101D2000EA1B0008581D00082000002020090000C0
:101D3000FA1B0008D5FEFFFF0000000000000000B5
:101D400000A24A04000000000000000000000000A3
:081D500000000000000000008B
:0400000508000131BD
:00000001FF
